{
  "contractName": "cTornado",
  "abi": [
    {
      "inputs": [
        {
          "internalType": "contract IERC20",
          "name": "_comp",
          "type": "address"
        },
        {
          "internalType": "contract IVerifier",
          "name": "_verifier",
          "type": "address"
        },
        {
          "internalType": "contract IHasher",
          "name": "_hasher",
          "type": "address"
        },
        {
          "internalType": "uint256",
          "name": "_denomination",
          "type": "uint256"
        },
        {
          "internalType": "uint32",
          "name": "_merkleTreeHeight",
          "type": "uint32"
        },
        {
          "internalType": "contract IERC20",
          "name": "_token",
          "type": "address"
        }
      ],
      "stateMutability": "nonpayable",
      "type": "constructor"
    },
    {
      "anonymous": false,
      "inputs": [
        {
          "indexed": true,
          "internalType": "bytes32",
          "name": "commitment",
          "type": "bytes32"
        },
        {
          "indexed": false,
          "internalType": "uint32",
          "name": "leafIndex",
          "type": "uint32"
        },
        {
          "indexed": false,
          "internalType": "uint256",
          "name": "timestamp",
          "type": "uint256"
        }
      ],
      "name": "Deposit",
      "type": "event"
    },
    {
      "anonymous": false,
      "inputs": [
        {
          "indexed": false,
          "internalType": "address",
          "name": "to",
          "type": "address"
        },
        {
          "indexed": false,
          "internalType": "bytes32",
          "name": "nullifierHash",
          "type": "bytes32"
        },
        {
          "indexed": true,
          "internalType": "address",
          "name": "relayer",
          "type": "address"
        },
        {
          "indexed": false,
          "internalType": "uint256",
          "name": "fee",
          "type": "uint256"
        }
      ],
      "name": "Withdrawal",
      "type": "event"
    },
    {
      "inputs": [],
      "name": "FIELD_SIZE",
      "outputs": [
        {
          "internalType": "uint256",
          "name": "",
          "type": "uint256"
        }
      ],
      "stateMutability": "view",
      "type": "function"
    },
    {
      "inputs": [],
      "name": "ROOT_HISTORY_SIZE",
      "outputs": [
        {
          "internalType": "uint32",
          "name": "",
          "type": "uint32"
        }
      ],
      "stateMutability": "view",
      "type": "function"
    },
    {
      "inputs": [],
      "name": "ZERO_VALUE",
      "outputs": [
        {
          "internalType": "uint256",
          "name": "",
          "type": "uint256"
        }
      ],
      "stateMutability": "view",
      "type": "function"
    },
    {
      "inputs": [
        {
          "internalType": "bytes32",
          "name": "",
          "type": "bytes32"
        }
      ],
      "name": "commitments",
      "outputs": [
        {
          "internalType": "bool",
          "name": "",
          "type": "bool"
        }
      ],
      "stateMutability": "view",
      "type": "function"
    },
    {
      "inputs": [],
      "name": "comp",
      "outputs": [
        {
          "internalType": "contract IERC20",
          "name": "",
          "type": "address"
        }
      ],
      "stateMutability": "view",
      "type": "function"
    },
    {
      "inputs": [],
      "name": "currentRootIndex",
      "outputs": [
        {
          "internalType": "uint32",
          "name": "",
          "type": "uint32"
        }
      ],
      "stateMutability": "view",
      "type": "function"
    },
    {
      "inputs": [],
      "name": "denomination",
      "outputs": [
        {
          "internalType": "uint256",
          "name": "",
          "type": "uint256"
        }
      ],
      "stateMutability": "view",
      "type": "function"
    },
    {
      "inputs": [
        {
          "internalType": "bytes32",
          "name": "_commitment",
          "type": "bytes32"
        }
      ],
      "name": "deposit",
      "outputs": [],
      "stateMutability": "payable",
      "type": "function"
    },
    {
      "inputs": [
        {
          "internalType": "uint256",
          "name": "",
          "type": "uint256"
        }
      ],
      "name": "filledSubtrees",
      "outputs": [
        {
          "internalType": "bytes32",
          "name": "",
          "type": "bytes32"
        }
      ],
      "stateMutability": "view",
      "type": "function"
    },
    {
      "inputs": [],
      "name": "getLastRoot",
      "outputs": [
        {
          "internalType": "bytes32",
          "name": "",
          "type": "bytes32"
        }
      ],
      "stateMutability": "view",
      "type": "function"
    },
    {
      "inputs": [],
      "name": "governance",
      "outputs": [
        {
          "internalType": "address",
          "name": "",
          "type": "address"
        }
      ],
      "stateMutability": "view",
      "type": "function"
    },
    {
      "inputs": [
        {
          "internalType": "contract IHasher",
          "name": "_hasher",
          "type": "address"
        },
        {
          "internalType": "bytes32",
          "name": "_left",
          "type": "bytes32"
        },
        {
          "internalType": "bytes32",
          "name": "_right",
          "type": "bytes32"
        }
      ],
      "name": "hashLeftRight",
      "outputs": [
        {
          "internalType": "bytes32",
          "name": "",
          "type": "bytes32"
        }
      ],
      "stateMutability": "pure",
      "type": "function"
    },
    {
      "inputs": [],
      "name": "hasher",
      "outputs": [
        {
          "internalType": "contract IHasher",
          "name": "",
          "type": "address"
        }
      ],
      "stateMutability": "view",
      "type": "function"
    },
    {
      "inputs": [
        {
          "internalType": "bytes32",
          "name": "_root",
          "type": "bytes32"
        }
      ],
      "name": "isKnownRoot",
      "outputs": [
        {
          "internalType": "bool",
          "name": "",
          "type": "bool"
        }
      ],
      "stateMutability": "view",
      "type": "function"
    },
    {
      "inputs": [
        {
          "internalType": "bytes32",
          "name": "_nullifierHash",
          "type": "bytes32"
        }
      ],
      "name": "isSpent",
      "outputs": [
        {
          "internalType": "bool",
          "name": "",
          "type": "bool"
        }
      ],
      "stateMutability": "view",
      "type": "function"
    },
    {
      "inputs": [
        {
          "internalType": "bytes32[]",
          "name": "_nullifierHashes",
          "type": "bytes32[]"
        }
      ],
      "name": "isSpentArray",
      "outputs": [
        {
          "internalType": "bool[]",
          "name": "spent",
          "type": "bool[]"
        }
      ],
      "stateMutability": "view",
      "type": "function"
    },
    {
      "inputs": [],
      "name": "levels",
      "outputs": [
        {
          "internalType": "uint32",
          "name": "",
          "type": "uint32"
        }
      ],
      "stateMutability": "view",
      "type": "function"
    },
    {
      "inputs": [],
      "name": "nextIndex",
      "outputs": [
        {
          "internalType": "uint32",
          "name": "",
          "type": "uint32"
        }
      ],
      "stateMutability": "view",
      "type": "function"
    },
    {
      "inputs": [
        {
          "internalType": "bytes32",
          "name": "",
          "type": "bytes32"
        }
      ],
      "name": "nullifierHashes",
      "outputs": [
        {
          "internalType": "bool",
          "name": "",
          "type": "bool"
        }
      ],
      "stateMutability": "view",
      "type": "function"
    },
    {
      "inputs": [
        {
          "internalType": "uint256",
          "name": "",
          "type": "uint256"
        }
      ],
      "name": "roots",
      "outputs": [
        {
          "internalType": "bytes32",
          "name": "",
          "type": "bytes32"
        }
      ],
      "stateMutability": "view",
      "type": "function"
    },
    {
      "inputs": [],
      "name": "token",
      "outputs": [
        {
          "internalType": "contract IERC20",
          "name": "",
          "type": "address"
        }
      ],
      "stateMutability": "view",
      "type": "function"
    },
    {
      "inputs": [],
      "name": "verifier",
      "outputs": [
        {
          "internalType": "contract IVerifier",
          "name": "",
          "type": "address"
        }
      ],
      "stateMutability": "view",
      "type": "function"
    },
    {
      "inputs": [
        {
          "internalType": "bytes",
          "name": "_proof",
          "type": "bytes"
        },
        {
          "internalType": "bytes32",
          "name": "_root",
          "type": "bytes32"
        },
        {
          "internalType": "bytes32",
          "name": "_nullifierHash",
          "type": "bytes32"
        },
        {
          "internalType": "address payable",
          "name": "_recipient",
          "type": "address"
        },
        {
          "internalType": "address payable",
          "name": "_relayer",
          "type": "address"
        },
        {
          "internalType": "uint256",
          "name": "_fee",
          "type": "uint256"
        },
        {
          "internalType": "uint256",
          "name": "_refund",
          "type": "uint256"
        }
      ],
      "name": "withdraw",
      "outputs": [],
      "stateMutability": "payable",
      "type": "function"
    },
    {
      "inputs": [
        {
          "internalType": "uint256",
          "name": "i",
          "type": "uint256"
        }
      ],
      "name": "zeros",
      "outputs": [
        {
          "internalType": "bytes32",
          "name": "",
          "type": "bytes32"
        }
      ],
      "stateMutability": "pure",
      "type": "function"
    },
    {
      "inputs": [],
      "name": "claimComp",
      "outputs": [],
      "stateMutability": "nonpayable",
      "type": "function"
    }
  ],
  "bytecode": "0x610100604052600380546001600160401b03191690557f5efda50f22d34f262c29268506c5fa42cb56a1ce00000000000000000000000060c0523480156200004657600080fd5b506040516200285c3803806200285c833981810160405260c08110156200006c57600080fd5b508051602082015160408301516060840151608085015160a0909501519394929391929091848484848484848484808363ffffffff8216620000e05760405162461bcd60e51b8152600401808060200182810382526023815260200180620028396023913960400191505060405180910390fd5b60208263ffffffff16106200013c576040805162461bcd60e51b815260206004820152601e60248201527f5f6c6576656c732073686f756c64206265206c657373207468616e2033320000604482015290519081900360640190fd5b6000805463ffffffff191663ffffffff8416178155606082901b6001600160601b0319166080525b8263ffffffff168163ffffffff161015620001ad576200018a63ffffffff8216620002de565b63ffffffff82166000908152600160208190526040909120919091550162000164565b50620001c363ffffffff600019840116620002de565b6000805260026020527fac33ff75c19e70fe83507db0d683fd3465c996598dc972688b7ace676c89077b555050600160045581620002335760405162461bcd60e51b8152600401808060200182810382526025815260200180620028146025913960400191505060405180910390fd5b5060609290921b6001600160601b03191660a05250600555600880546001600160a01b0319166001600160a01b039283161790558a1615159350620002c392505050576040805162461bcd60e51b815260206004820152601a60248201527f496e76616c696420434f4d5020746f6b656e2061646472657373000000000000604482015290519081900360640190fd5b505050505060601b6001600160601b03191660e0526200096c565b6000816200030e57507f2fe54c60d3acabf3343a35b6eba15db4821b340f76e741e2249685ed4899af6c62000967565b81600114156200034057507f256a6135777eee2fd26f54b8b7037a25439d5235caee224154186d2b8a52e31d62000967565b81600214156200037257507f1151949895e82ab19924de92c40a3d6f7bcb60d92b00504b8199613683f0c20062000967565b8160031415620003a457507f20121ee811489ff8d61f09fb89e313f14959a0f28bb428a20dba6b0b068b3bdb62000967565b8160041415620003d657507f0a89ca6ffa14cc462cfedb842c30ed221a50a3d6bf022a6a57dc82ab24c157c962000967565b81600514156200040857507f24ca05c2b5cd42e890d6be94c68d0689f4f21c9cec9c0f13fe41d566dfb5495962000967565b81600614156200043a57507f1ccb97c932565a92c60156bdba2d08f3bf1377464e025cee765679e604a7315c62000967565b81600714156200046c57507f19156fbd7d1a8bf5cba8909367de1b624534ebab4f0f79e003bccdd1b182bdb462000967565b81600814156200049e57507f261af8c1f0912e465744641409f622d466c3920ac6e5ff37e36604cb11dfff8062000967565b8160091415620004cf57507e58459724ff6ca5a1652fcbc3e82b93895cf08e975b19beab3f54c217d1c00762000967565b81600a14156200050157507f1f04ef20dee48d39984d8eabe768a70eafa6310ad20849d4573c3c40c2ad1e3062000967565b81600b14156200053357507f1bea3dec5dab51567ce7e200a30f7ba6d4276aeaa53e2686f962a46c66d511e562000967565b81600c14156200056557507f0ee0f941e2da4b9e31c3ca97a40d8fa9ce68d97c084177071b3cb46cd3372f0f62000967565b81600d14156200059757507f1ca9503e8935884501bbaf20be14eb4c46b89772c97b96e3b2ebf3a36a948bbd62000967565b81600e1415620005c957507f133a80e30697cd55d8f7d4b0965b7be24057ba5dc3da898ee2187232446cb10862000967565b81600f1415620005fb57507f13e6d8fc88839ed76e182c2a779af5b2c0da9dd18c90427a644f7e148a6253b662000967565b81601014156200062d57507f1eb16b057a477f4bc8f572ea6bee39561098f78f15bfb3699dcbb7bd8db6185462000967565b81601114156200065f57507f0da2cb16a1ceaabf1c16b838f7a9e3f2a3a3088d9e0a6debaa748114620696ea62000967565b81601214156200069157507f24a3b3d822420b14b5d8cb6c28a574f01e98ea9e940551d2ebd75cee12649f9d62000967565b8160131415620006c357507f198622acbd783d1b0d9064105b1fc8e4d8889de95c4c519b3f635809fe6afc0562000967565b8160141415620006f557507f29d7ed391256ccc3ea596c86e933b89ff339d25ea8ddced975ae2fe30b5296d462000967565b81601514156200072757507f19be59f2f0413ce78c0c3703a3a5451b1d7f39629fa33abd11548a76065b296762000967565b81601614156200075957507f1ff3f61797e538b70e619310d33f2a063e7eb59104e112e95738da1254dc345362000967565b81601714156200078b57507f10c16ae9959cf8358980d9dd9616e48228737310a10e2b6b731c1a548f036c4862000967565b8160181415620007bd57507f0ba433a63174a90ac20992e75e3095496812b652685b5e1a2eae0b1bf4e8fcd162000967565b8160191415620007ef57507f019ddb9df2bc98d987d0dfeca9d2b643deafab8f7036562e627c3667266a044c62000967565b81601a14156200082157507f2d3c88b23175c5a5565db928414c66d1912b11acf974b2e644caaac04739ce9962000967565b81601b14156200085357507f2eab55f6ae4e66e32c5189eed5c470840863445760f5ed7e7b69b2a62600f35462000967565b81601c14156200088457507e2df37a2642621802383cf952bf4dd1f32e05433beeb1fd41031fb7eace979d62000967565b81601d1415620008b657507f104aeb41435db66c3e62feccc1d6f5d98d0a0ed75d1374db457cf462e3a1f42762000967565b81601e1415620008e857507f1f3c6fd858e9a7d4b0d1f38e256a09d81d5a5e3c963987e2d4b814cfab7c6ebb62000967565b81601f14156200091a57507f2c7a07d20dff79d01fecedc1134284a8d08436606c93693b67e333f671bf69cc62000967565b6040805162461bcd60e51b815260206004820152601360248201527f496e646578206f7574206f6620626f756e647300000000000000000000000000604482015290519081900360640190fd5b919050565b60805160601c60a05160601c60c05160601c60e05160601c611e4d620009c7600039806105d6528061060f528061065f52508061063e5280610b245250806108e75280610ae2525080611619528061185b5250611e4d6000f3fe6080604052600436106101665760003560e01c806390eeb02b116100d1578063e5285dcc1161008a578063ed33639f11610064578063ed33639f1461056b578063f178e47c14610580578063fc0c546a146105aa578063fc7e9c6f146105bf57610166565b8063e5285dcc14610502578063e82955881461052c578063ec7329591461055657610166565b806390eeb02b146103b15780639fa12d0b146103c6578063b214faa514610491578063ba70f757146104ae578063c2b40ae4146104c3578063cd87a3b4146104ed57610166565b80634ecf518b116101235780634ecf518b146102c65780635aa6e675146102f45780636d9833e314610309578063839df945146103335780638bca6d161461035d5780638ea3099e1461037257610166565b8063109d0af81461016b57806317cc915c1461019c5780631bd85bdb146101da57806321a0adb6146101f15780632b7ac3f31461028a578063414a37ba1461029f575b600080fd5b34801561017757600080fd5b506101806105d4565b604080516001600160a01b039092168252519081900360200190f35b3480156101a857600080fd5b506101c6600480360360208110156101bf57600080fd5b50356105f8565b604080519115158252519081900360200190f35b3480156101e657600080fd5b506101ef61060d565b005b6101ef600480360360e081101561020757600080fd5b810190602081018135600160201b81111561022157600080fd5b82018360208201111561023357600080fd5b803590602001918460018302840111600160201b8311171561025457600080fd5b91935091508035906020810135906001600160a01b03604082013581169160608101359091169060808101359060a00135610773565b34801561029657600080fd5b50610180610ae0565b3480156102ab57600080fd5b506102b4610b04565b60408051918252519081900360200190f35b3480156102d257600080fd5b506102db610b16565b6040805163ffffffff9092168252519081900360200190f35b34801561030057600080fd5b50610180610b22565b34801561031557600080fd5b506101c66004803603602081101561032c57600080fd5b5035610b46565b34801561033f57600080fd5b506101c66004803603602081101561035657600080fd5b5035610bb8565b34801561036957600080fd5b506102b4610bcd565b34801561037e57600080fd5b506102b46004803603606081101561039557600080fd5b506001600160a01b038135169060208101359060400135610bd3565b3480156103bd57600080fd5b506102db610da1565b3480156103d257600080fd5b50610441600480360360208110156103e957600080fd5b810190602081018135600160201b81111561040357600080fd5b82018360208201111561041557600080fd5b803590602001918460208302840111600160201b8311171561043657600080fd5b509092509050610dad565b60408051602080825283518183015283519192839290830191858101910280838360005b8381101561047d578181015183820152602001610465565b505050509050019250505060405180910390f35b6101ef600480360360208110156104a757600080fd5b5035610e4c565b3480156104ba57600080fd5b506102b4610f6d565b3480156104cf57600080fd5b506102b4600480360360208110156104e657600080fd5b5035610f88565b3480156104f957600080fd5b506102db610f9a565b34801561050e57600080fd5b506101c66004803603602081101561052557600080fd5b5035610f9f565b34801561053857600080fd5b506102b46004803603602081101561054f57600080fd5b5035610fb4565b34801561056257600080fd5b506102b46115f3565b34801561057757600080fd5b50610180611617565b34801561058c57600080fd5b506102b4600480360360208110156105a357600080fd5b503561163b565b3480156105b657600080fd5b5061018061164d565b3480156105cb57600080fd5b506102db61165c565b7f000000000000000000000000000000000000000000000000000000000000000081565b60066020526000908152604090205460ff1681565b7f00000000000000000000000000000000000000000000000000000000000000006001600160a01b031663a9059cbb7f00000000000000000000000000000000000000000000000000000000000000007f00000000000000000000000000000000000000000000000000000000000000006001600160a01b03166370a08231306040518263ffffffff1660e01b815260040180826001600160a01b0316815260200191505060206040518083038186803b1580156106ca57600080fd5b505afa1580156106de573d6000803e3d6000fd5b505050506040513d60208110156106f457600080fd5b5051604080516001600160e01b031960e086901b1681526001600160a01b03909316600484015260248301919091525160448083019260209291908290030181600087803b15801561074557600080fd5b505af1158015610759573d6000803e3d6000fd5b505050506040513d602081101561076f57600080fd5b5050565b600260045414156107cb576040805162461bcd60e51b815260206004820152601f60248201527f5265656e7472616e637947756172643a207265656e7472616e742063616c6c00604482015290519081900360640190fd5b6002600455600554821115610827576040805162461bcd60e51b815260206004820152601a60248201527f4665652065786365656473207472616e736665722076616c7565000000000000604482015290519081900360640190fd5b60008581526006602052604090205460ff161561088b576040805162461bcd60e51b815260206004820152601f60248201527f546865206e6f746520686173206265656e20616c7265616479207370656e7400604482015290519081900360640190fd5b61089486610b46565b6108e5576040805162461bcd60e51b815260206004820152601c60248201527f43616e6e6f742066696e6420796f7572206d65726b6c6520726f6f7400000000604482015290519081900360640190fd5b7f00000000000000000000000000000000000000000000000000000000000000006001600160a01b031663695ef6f989896040518060c001604052808b60001c81526020018a60001c8152602001896001600160a01b03168152602001886001600160a01b03168152602001878152602001868152506040518463ffffffff1660e01b8152600401808060200183600660200280838360005b8381101561099657818101518382015260200161097e565b505050509050018281038252858582818152602001925080828437600081840152601f19601f820116905080830192505050945050505050602060405180830381600087803b1580156109e857600080fd5b505af11580156109fc573d6000803e3d6000fd5b505050506040513d6020811015610a1257600080fd5b5051610a5e576040805162461bcd60e51b815260206004820152601660248201527524b73b30b634b2103bb4ba34323930bb90383937b7b360511b604482015290519081900360640190fd5b6000858152600660205260409020805460ff19166001179055610a838484848461166f565b604080516001600160a01b038681168252602082018890528183018590529151918516917fe9e508bad6d4c3227e881ca19068f099da81b5164dd6d62b2eaf1e8bc6c349319181900360600190a250506001600455505050505050565b7f000000000000000000000000000000000000000000000000000000000000000081565b600080516020611d4d83398151915281565b60005463ffffffff1681565b7f000000000000000000000000000000000000000000000000000000000000000081565b600081610b5557506000610bb3565b60035463ffffffff16805b63ffffffff8116600090815260026020526040902054841415610b8857600192505050610bb3565b63ffffffff8116610b975750601e5b6000190163ffffffff8082169083161415610b60576000925050505b919050565b60076020526000908152604090205460ff1681565b60055481565b6000600080516020611d4d8339815191528310610c37576040805162461bcd60e51b815260206004820181905260248201527f5f6c6566742073686f756c6420626520696e7369646520746865206669656c64604482015290519081900360640190fd5b600080516020611d4d8339815191528210610c835760405162461bcd60e51b8152600401808060200182810382526021815260200180611d2c6021913960400191505060405180910390fd5b6040805163f47d33b560e01b8152600481018590526000602482018190528251869391926001600160a01b0389169263f47d33b592604480840193829003018186803b158015610cd257600080fd5b505afa158015610ce6573d6000803e3d6000fd5b505050506040513d6040811015610cfc57600080fd5b5080516020909101519092509050600080516020611d4d8339815191528483089150856001600160a01b031663f47d33b583836040518363ffffffff1660e01b81526004018083815260200182815260200192505050604080518083038186803b158015610d6957600080fd5b505afa158015610d7d573d6000803e3d6000fd5b505050506040513d6040811015610d9357600080fd5b5051925050505b9392505050565b60035463ffffffff1681565b60608167ffffffffffffffff81118015610dc657600080fd5b50604051908082528060200260200182016040528015610df0578160200160208202803683370190505b50905060005b82811015610e4557610e19848483818110610e0d57fe5b90506020020135610f9f565b15610e3d576001828281518110610e2c57fe5b911515602092830291909101909101525b600101610df6565b5092915050565b60026004541415610ea4576040805162461bcd60e51b815260206004820152601f60248201527f5265656e7472616e637947756172643a207265656e7472616e742063616c6c00604482015290519081900360640190fd5b600260045560008181526007602052604090205460ff1615610ef75760405162461bcd60e51b8152600401808060200182810382526021815260200180611d6d6021913960400191505060405180910390fd5b6000610f0282611789565b6000838152600760205260409020805460ff191660011790559050610f256118fd565b6040805163ffffffff83168152426020820152815184927fa945e51eec50ab98c161376f0db4cf2aeba3ec92755fe2fcd388bdbbb80ff196928290030190a250506001600455565b60035463ffffffff1660009081526002602052604090205490565b60026020526000908152604090205481565b601e81565b60009081526006602052604090205460ff1690565b600081610fe257507f2fe54c60d3acabf3343a35b6eba15db4821b340f76e741e2249685ed4899af6c610bb3565b816001141561101257507f256a6135777eee2fd26f54b8b7037a25439d5235caee224154186d2b8a52e31d610bb3565b816002141561104257507f1151949895e82ab19924de92c40a3d6f7bcb60d92b00504b8199613683f0c200610bb3565b816003141561107257507f20121ee811489ff8d61f09fb89e313f14959a0f28bb428a20dba6b0b068b3bdb610bb3565b81600414156110a257507f0a89ca6ffa14cc462cfedb842c30ed221a50a3d6bf022a6a57dc82ab24c157c9610bb3565b81600514156110d257507f24ca05c2b5cd42e890d6be94c68d0689f4f21c9cec9c0f13fe41d566dfb54959610bb3565b816006141561110257507f1ccb97c932565a92c60156bdba2d08f3bf1377464e025cee765679e604a7315c610bb3565b816007141561113257507f19156fbd7d1a8bf5cba8909367de1b624534ebab4f0f79e003bccdd1b182bdb4610bb3565b816008141561116257507f261af8c1f0912e465744641409f622d466c3920ac6e5ff37e36604cb11dfff80610bb3565b816009141561119157507e58459724ff6ca5a1652fcbc3e82b93895cf08e975b19beab3f54c217d1c007610bb3565b81600a14156111c157507f1f04ef20dee48d39984d8eabe768a70eafa6310ad20849d4573c3c40c2ad1e30610bb3565b81600b14156111f157507f1bea3dec5dab51567ce7e200a30f7ba6d4276aeaa53e2686f962a46c66d511e5610bb3565b81600c141561122157507f0ee0f941e2da4b9e31c3ca97a40d8fa9ce68d97c084177071b3cb46cd3372f0f610bb3565b81600d141561125157507f1ca9503e8935884501bbaf20be14eb4c46b89772c97b96e3b2ebf3a36a948bbd610bb3565b81600e141561128157507f133a80e30697cd55d8f7d4b0965b7be24057ba5dc3da898ee2187232446cb108610bb3565b81600f14156112b157507f13e6d8fc88839ed76e182c2a779af5b2c0da9dd18c90427a644f7e148a6253b6610bb3565b81601014156112e157507f1eb16b057a477f4bc8f572ea6bee39561098f78f15bfb3699dcbb7bd8db61854610bb3565b816011141561131157507f0da2cb16a1ceaabf1c16b838f7a9e3f2a3a3088d9e0a6debaa748114620696ea610bb3565b816012141561134157507f24a3b3d822420b14b5d8cb6c28a574f01e98ea9e940551d2ebd75cee12649f9d610bb3565b816013141561137157507f198622acbd783d1b0d9064105b1fc8e4d8889de95c4c519b3f635809fe6afc05610bb3565b81601414156113a157507f29d7ed391256ccc3ea596c86e933b89ff339d25ea8ddced975ae2fe30b5296d4610bb3565b81601514156113d157507f19be59f2f0413ce78c0c3703a3a5451b1d7f39629fa33abd11548a76065b2967610bb3565b816016141561140157507f1ff3f61797e538b70e619310d33f2a063e7eb59104e112e95738da1254dc3453610bb3565b816017141561143157507f10c16ae9959cf8358980d9dd9616e48228737310a10e2b6b731c1a548f036c48610bb3565b816018141561146157507f0ba433a63174a90ac20992e75e3095496812b652685b5e1a2eae0b1bf4e8fcd1610bb3565b816019141561149157507f019ddb9df2bc98d987d0dfeca9d2b643deafab8f7036562e627c3667266a044c610bb3565b81601a14156114c157507f2d3c88b23175c5a5565db928414c66d1912b11acf974b2e644caaac04739ce99610bb3565b81601b14156114f157507f2eab55f6ae4e66e32c5189eed5c470840863445760f5ed7e7b69b2a62600f354610bb3565b81601c141561152057507e2df37a2642621802383cf952bf4dd1f32e05433beeb1fd41031fb7eace979d610bb3565b81601d141561155057507f104aeb41435db66c3e62feccc1d6f5d98d0a0ed75d1374db457cf462e3a1f427610bb3565b81601e141561158057507f1f3c6fd858e9a7d4b0d1f38e256a09d81d5a5e3c963987e2d4b814cfab7c6ebb610bb3565b81601f14156115b057507f2c7a07d20dff79d01fecedc1134284a8d08436606c93693b67e333f671bf69cc610bb3565b6040805162461bcd60e51b8152602060048201526013602482015272496e646578206f7574206f6620626f756e647360681b604482015290519081900360640190fd5b7f2fe54c60d3acabf3343a35b6eba15db4821b340f76e741e2249685ed4899af6c81565b7f000000000000000000000000000000000000000000000000000000000000000081565b60016020526000908152604090205481565b6008546001600160a01b031681565b600354600160201b900463ffffffff1681565b8034146116ad5760405162461bcd60e51b8152600401808060200182810382526030815260200180611cd66030913960400191505060405180910390fd5b6005546008546116cd916001600160a01b0390911690869085900361195b565b81156116ea576008546116ea906001600160a01b0316848461195b565b8015611783576040516000906001600160a01b0386169083908381818185875af1925050503d806000811461173b576040519150601f19603f3d011682016040523d82523d6000602084013e611740565b606091505b5050905080611781576040516001600160a01b0385169083156108fc029084906000818181858888f1935050505015801561177f573d6000803e3d6000fd5b505b505b50505050565b60035460008054909163ffffffff600160201b909104811691811660020a168114156117e65760405162461bcd60e51b8152600401808060200182810382526030815260200180611de86030913960400191505060405180910390fd5b8083600080805b60005463ffffffff9081169082161015611897576001851661183a5783925061181b8163ffffffff16610fb4565b63ffffffff821660009081526001602052604090208590559150611856565b63ffffffff811660009081526001602052604090205492508391505b6118817f00000000000000000000000000000000000000000000000000000000000000008484610bd3565b9350600263ffffffff86160494506001016117ed565b505060038054601e63ffffffff8083166001908101821692909206811663ffffffff199093168317845560009283526002602052604090922094909455815493860116600160201b0267ffffffff00000000199093169290921790915550909392505050565b341561193a5760405162461bcd60e51b8152600401808060200182810382526030815260200180611d8e6030913960400191505060405180910390fd5b600554600854611959916001600160a01b0390911690339030906119b2565b565b604080516001600160a01b038416602482015260448082018490528251808303909101815260649091019091526020810180516001600160e01b031663a9059cbb60e01b1790526119ad908490611a08565b505050565b604080516001600160a01b0380861660248301528416604482015260648082018490528251808303909101815260849091019091526020810180516001600160e01b03166323b872dd60e01b1790526117839085905b6000611a5d826040518060400160405280602081526020017f5361666545524332303a206c6f772d6c6576656c2063616c6c206661696c6564815250856001600160a01b0316611ab99092919063ffffffff16565b8051909150156119ad57808060200190516020811015611a7c57600080fd5b50516119ad5760405162461bcd60e51b815260040180806020018281038252602a815260200180611dbe602a913960400191505060405180910390fd5b6060611ac88484600085611ad0565b949350505050565b606082471015611b115760405162461bcd60e51b8152600401808060200182810382526026815260200180611d066026913960400191505060405180910390fd5b611b1a85611c2b565b611b6b576040805162461bcd60e51b815260206004820152601d60248201527f416464726573733a2063616c6c20746f206e6f6e2d636f6e7472616374000000604482015290519081900360640190fd5b600080866001600160a01b031685876040518082805190602001908083835b60208310611ba95780518252601f199092019160209182019101611b8a565b6001836020036101000a03801982511681845116808217855250505050505090500191505060006040518083038185875af1925050503d8060008114611c0b576040519150601f19603f3d011682016040523d82523d6000602084013e611c10565b606091505b5091509150611c20828286611c31565b979650505050505050565b3b151590565b60608315611c40575081610d9a565b825115611c505782518084602001fd5b8160405162461bcd60e51b81526004018080602001828103825283818151815260200191508051906020019080838360005b83811015611c9a578181015183820152602001611c82565b50505050905090810190601f168015611cc75780820380516001836020036101000a031916815260200191505b509250505060405180910390fdfe496e636f727265637420726566756e6420616d6f756e742072656365697665642062792074686520636f6e7472616374416464726573733a20696e73756666696369656e742062616c616e636520666f722063616c6c5f72696768742073686f756c6420626520696e7369646520746865206669656c6430644e72e131a029b85045b68181585d2833e84879b9709143e1f593f000000154686520636f6d6d69746d656e7420686173206265656e207375626d69747465644554482076616c756520697320737570706f73656420746f206265203020666f7220455243323020696e7374616e63655361666545524332303a204552433230206f7065726174696f6e20646964206e6f7420737563636565644d65726b6c6520747265652069732066756c6c2e204e6f206d6f7265206c65617665732063616e206265206164646564a26469706673582212208748ad930a16ba5b2212e18f96881f45e88ac686eaf00a66ae9e590b0b30bb8e64736f6c6343000706003364656e6f6d696e6174696f6e2073686f756c642062652067726561746572207468616e20305f6c6576656c732073686f756c642062652067726561746572207468616e207a65726f",
  "immutableReferences": {
    "250": [
      {
        "length": 32,
        "start": 5657
      },
      {
        "length": 32,
        "start": 6235
      }
    ],
    "1064": [
      {
        "length": 32,
        "start": 2279
      },
      {
        "length": 32,
        "start": 2786
      }
    ],
    "2115": [
      {
        "length": 32,
        "start": 1598
      },
      {
        "length": 32,
        "start": 2852
      }
    ],
    "2117": [
      {
        "length": 32,
        "start": 1494
      },
      {
        "length": 32,
        "start": 1551
      },
      {
        "length": 32,
        "start": 1631
      }
    ]
  },
  "source": "// https://tornado.cash\r\n/*\r\n * d888888P                                           dP              a88888b.                   dP\r\n *    88                                              88             d8'   `88                   88\r\n *    88    .d8888b. 88d888b. 88d888b. .d8888b. .d888b88 .d8888b.    88        .d8888b. .d8888b. 88d888b.\r\n *    88    88'  `88 88'  `88 88'  `88 88'  `88 88'  `88 88'  `88    88        88'  `88 Y8ooooo. 88'  `88\r\n *    88    88.  .88 88       88    88 88.  .88 88.  .88 88.  .88 dP Y8.   .88 88.  .88       88 88    88\r\n *    dP    `88888P' dP       dP    dP `88888P8 `88888P8 `88888P' 88  Y88888P' `88888P8 `88888P' dP    dP\r\n * ooooooooooooooooooooooooooooooooooooooooooooooooooooooooooooooooooooooooooooooooooooooooooooooooooooooo\r\n */\r\n\r\n// SPDX-License-Identifier: MIT\r\npragma solidity ^0.7.0;\r\n\r\nimport \"./ERC20Tornado.sol\";\r\nimport \"@openzeppelin/contracts/token/ERC20/IERC20.sol\";\r\n\r\ncontract cTornado is ERC20Tornado {\r\n  address public immutable governance = 0x5efda50f22d34F262c29268506C5Fa42cB56A1Ce;\r\n  IERC20 public immutable comp;\r\n\r\n  constructor(\r\n    IERC20 _comp,\r\n    IVerifier _verifier,\r\n    IHasher _hasher,\r\n    uint256 _denomination,\r\n    uint32 _merkleTreeHeight,\r\n    IERC20 _token\r\n  ) ERC20Tornado(_verifier, _hasher, _denomination, _merkleTreeHeight, _token) {\r\n    require(address(_comp) != address(0), \"Invalid COMP token address\");\r\n    comp = _comp;\r\n  }\r\n\r\n  /// @dev Moves earned yield of the COMP token to the tornado governance contract\r\n  /// To make it work you might need to call `comptroller.claimComp(cPoolAddress)` first\r\n  function claimComp() external {\r\n    comp.transfer(governance, comp.balanceOf(address(this)));\r\n  }\r\n}\r\n",
  "sourcePath": "C:/GIGA BRAIN/TORNADO NIGGER/tornado-core/contracts/cTornado.sol",
  "compiler": {
    "name": "solc",
    "version": "0.7.6+commit.7338295f.Emscripten.clang"
  },
  "schemaVersion": "3.3.4",
  "updatedAt": "2025-08-18T20:38:55.825Z",
  "devdoc": {
    "kind": "dev",
    "methods": {
      "claimComp()": {
        "details": "Moves earned yield of the COMP token to the tornado governance contract To make it work you might need to call `comptroller.claimComp(cPoolAddress)` first"
      },
      "deposit(bytes32)": {
        "details": "Deposit funds into the contract. The caller must send (for ETH) or approve (for ERC20) value equal to or `denomination` of this instance.",
        "params": {
          "_commitment": "the note commitment, which is PedersenHash(nullifier + secret)"
        }
      },
      "getLastRoot()": {
        "details": "Returns the last root"
      },
      "hashLeftRight(address,bytes32,bytes32)": {
        "details": "Hash 2 tree leaves, returns MiMC(_left, _right)"
      },
      "isKnownRoot(bytes32)": {
        "details": "Whether the root is present in the root history"
      },
      "isSpent(bytes32)": {
        "details": "whether a note is already spent "
      },
      "isSpentArray(bytes32[])": {
        "details": "whether an array of notes is already spent "
      },
      "withdraw(bytes,bytes32,bytes32,address,address,uint256,uint256)": {
        "details": "Withdraw a deposit from the contract. `proof` is a zkSNARK proof data, and input is an array of circuit public inputs `input` array consists of: - merkle root of all deposits in the contract - hash of unique deposit nullifier to prevent double spends - the recipient of funds - optional fee that goes to the transaction sender (usually a relay)"
      },
      "zeros(uint256)": {
        "details": "provides Zero (Empty) elements for a MiMC MerkleTree. Up to 32 levels"
      }
    },
    "version": 1
  },
  "userdoc": {
    "kind": "user",
    "methods": {},
    "version": 1
  }
}