{
  "contractName": "SimpleTornado",
  "abi": [
    {
      "anonymous": false,
      "inputs": [
        {
          "indexed": true,
          "internalType": "bytes32",
          "name": "commitment",
          "type": "bytes32"
        },
        {
          "indexed": false,
          "internalType": "uint32",
          "name": "leafIndex",
          "type": "uint32"
        },
        {
          "indexed": false,
          "internalType": "uint256",
          "name": "timestamp",
          "type": "uint256"
        }
      ],
      "name": "Deposit",
      "type": "event"
    },
    {
      "anonymous": false,
      "inputs": [
        {
          "indexed": false,
          "internalType": "address",
          "name": "to",
          "type": "address"
        },
        {
          "indexed": false,
          "internalType": "bytes32",
          "name": "nullifierHash",
          "type": "bytes32"
        }
      ],
      "name": "Withdrawal",
      "type": "event"
    },
    {
      "inputs": [
        {
          "internalType": "bytes32",
          "name": "",
          "type": "bytes32"
        }
      ],
      "name": "commitments",
      "outputs": [
        {
          "internalType": "bool",
          "name": "",
          "type": "bool"
        }
      ],
      "stateMutability": "view",
      "type": "function"
    },
    {
      "inputs": [],
      "name": "denomination",
      "outputs": [
        {
          "internalType": "uint256",
          "name": "",
          "type": "uint256"
        }
      ],
      "stateMutability": "view",
      "type": "function"
    },
    {
      "inputs": [],
      "name": "depositCount",
      "outputs": [
        {
          "internalType": "uint32",
          "name": "",
          "type": "uint32"
        }
      ],
      "stateMutability": "view",
      "type": "function"
    },
    {
      "inputs": [
        {
          "internalType": "bytes32",
          "name": "",
          "type": "bytes32"
        }
      ],
      "name": "deposits",
      "outputs": [
        {
          "internalType": "address",
          "name": "",
          "type": "address"
        }
      ],
      "stateMutability": "view",
      "type": "function"
    },
    {
      "inputs": [
        {
          "internalType": "bytes32",
          "name": "",
          "type": "bytes32"
        }
      ],
      "name": "nullifierHashes",
      "outputs": [
        {
          "internalType": "bool",
          "name": "",
          "type": "bool"
        }
      ],
      "stateMutability": "view",
      "type": "function"
    },
    {
      "inputs": [
        {
          "internalType": "bytes32",
          "name": "_commitment",
          "type": "bytes32"
        }
      ],
      "name": "deposit",
      "outputs": [],
      "stateMutability": "payable",
      "type": "function"
    },
    {
      "inputs": [
        {
          "internalType": "bytes32",
          "name": "_nullifierHash",
          "type": "bytes32"
        },
        {
          "internalType": "bytes32",
          "name": "_commitment",
          "type": "bytes32"
        },
        {
          "internalType": "address payable",
          "name": "_recipient",
          "type": "address"
        }
      ],
      "name": "withdraw",
      "outputs": [],
      "stateMutability": "nonpayable",
      "type": "function"
    },
    {
      "inputs": [
        {
          "internalType": "bytes32",
          "name": "_commitment",
          "type": "bytes32"
        },
        {
          "internalType": "address payable",
          "name": "_recipient",
          "type": "address"
        }
      ],
      "name": "emergencyWithdraw",
      "outputs": [],
      "stateMutability": "nonpayable",
      "type": "function"
    }
  ],
  "bytecode": "0x608060405269d3c21bcecceda10000006000556004805463ffffffff1916905534801561002b57600080fd5b506106fa8061003b6000396000f3fe60806040526004361061007b5760003560e01c80638bca6d161161004e5780638bca6d161461015c578063a65b9a6014610183578063b214faa5146101c4578063bf32097c146101e15761007b565b806317cc915c146100805780632dfdf0b5146100be5780633d4dff7b146100ec578063839df94514610132575b600080fd5b34801561008c57600080fd5b506100aa600480360360208110156100a357600080fd5b503561021a565b604080519115158252519081900360200190f35b3480156100ca57600080fd5b506100d361022f565b6040805163ffffffff9092168252519081900360200190f35b3480156100f857600080fd5b506101166004803603602081101561010f57600080fd5b503561023b565b604080516001600160a01b039092168252519081900360200190f35b34801561013e57600080fd5b506100aa6004803603602081101561015557600080fd5b5035610256565b34801561016857600080fd5b5061017161026b565b60408051918252519081900360200190f35b34801561018f57600080fd5b506101c2600480360360608110156101a657600080fd5b50803590602081013590604001356001600160a01b0316610271565b005b6101c2600480360360208110156101da57600080fd5b503561041b565b3480156101ed57600080fd5b506101c26004803603604081101561020457600080fd5b50803590602001356001600160a01b031661055d565b60026020526000908152604090205460ff1681565b60045463ffffffff1681565b6003602052600090815260409020546001600160a01b031681565b60016020526000908152604090205460ff1681565b60005481565b60008281526001602052604090205460ff166102c9576040805162461bcd60e51b8152602060048201526012602482015271125b9d985b1a590818dbdb5b5a5d1b595b9d60721b604482015290519081900360640190fd5b60008381526002602052604090205460ff1615610322576040805162461bcd60e51b8152602060048201526012602482015271139bdd1948185b1c9958591e481cdc195b9d60721b604482015290519081900360640190fd5b600083815260026020526040808220805460ff19166001179055815490516001600160a01b03841691908381818185875af1925050503d8060008114610384576040519150601f19603f3d011682016040523d82523d6000602084013e610389565b606091505b50509050806103d1576040805162461bcd60e51b815260206004820152600f60248201526e151c985b9cd9995c8819985a5b1959608a1b604482015290519081900360640190fd5b604080516001600160a01b03841681526020810186905281517f0ce490531f6c8ae2f1ff174643bc8b7ed5e52987ab50dc1e8f33655d2cd8c90b929181900390910190a150505050565b6000543414610471576040805162461bcd60e51b815260206004820152601860248201527f496e636f7272656374206465706f73697420616d6f756e740000000000000000604482015290519081900360640190fd5b60008181526001602052604090205460ff16156104d5576040805162461bcd60e51b815260206004820152601960248201527f436f6d6d69746d656e7420616c72656164792065786973747300000000000000604482015290519081900360640190fd5b6000818152600160208181526040808420805460ff191684179055600382529283902080546001600160a01b031916331790556004805463ffffffff8082169485011663ffffffff1990911617905582519182524290820152815183927fa945e51eec50ab98c161376f0db4cf2aeba3ec92755fe2fcd388bdbbb80ff196928290030190a250565b60008281526001602052604090205460ff166105b5576040805162461bcd60e51b8152602060048201526012602482015271125b9d985b1a590818dbdb5b5a5d1b595b9d60721b604482015290519081900360640190fd5b6000828152600360205260409020546001600160a01b03163314610613576040805162461bcd60e51b815260206004820152601060248201526f139bdd081e5bdd5c8819195c1bdcda5d60821b604482015290519081900360640190fd5b600082815260016020526040808220805460ff19169055815490516001600160a01b03841691908381818185875af1925050503d8060008114610672576040519150601f19603f3d011682016040523d82523d6000602084013e610677565b606091505b50509050806106bf576040805162461bcd60e51b815260206004820152600f60248201526e151c985b9cd9995c8819985a5b1959608a1b604482015290519081900360640190fd5b50505056fea264697066735822122054436b64c0bed18c8cdb7c5a7bac15a974fb42b62145eb49880819195efb308364736f6c63430007060033",
  "immutableReferences": {},
  "source": "// SPDX-License-Identifier: MIT\r\npragma solidity ^0.7.0;\r\n\r\n/**\r\n * SimpleTornado - A simplified version for testing without ZK proofs\r\n * WARNING: This is for testing only! It has no privacy!\r\n */\r\ncontract SimpleTornado {\r\n    uint256 public denomination = 1000000 ether; // 1M PLS\r\n    \r\n    mapping(bytes32 => bool) public commitments;\r\n    mapping(bytes32 => bool) public nullifierHashes;\r\n    mapping(bytes32 => address) public deposits; // Maps commitment to depositor\r\n    \r\n    event Deposit(bytes32 indexed commitment, uint32 leafIndex, uint256 timestamp);\r\n    event Withdrawal(address to, bytes32 nullifierHash);\r\n    \r\n    uint32 public depositCount = 0;\r\n    \r\n    function deposit(bytes32 _commitment) external payable {\r\n        require(msg.value == denomination, \"Incorrect deposit amount\");\r\n        require(!commitments[_commitment], \"Commitment already exists\");\r\n        \r\n        commitments[_commitment] = true;\r\n        deposits[_commitment] = msg.sender;\r\n        \r\n        emit Deposit(_commitment, depositCount++, block.timestamp);\r\n    }\r\n    \r\n    function withdraw(\r\n        bytes32 _nullifierHash,\r\n        bytes32 _commitment,\r\n        address payable _recipient\r\n    ) external {\r\n        require(commitments[_commitment], \"Invalid commitment\");\r\n        require(!nullifierHashes[_nullifierHash], \"Note already spent\");\r\n        \r\n        nullifierHashes[_nullifierHash] = true;\r\n        \r\n        (bool success, ) = _recipient.call{value: denomination}(\"\");\r\n        require(success, \"Transfer failed\");\r\n        \r\n        emit Withdrawal(_recipient, _nullifierHash);\r\n    }\r\n    \r\n    function emergencyWithdraw(bytes32 _commitment, address payable _recipient) external {\r\n        require(commitments[_commitment], \"Invalid commitment\");\r\n        require(deposits[_commitment] == msg.sender, \"Not your deposit\");\r\n        \r\n        commitments[_commitment] = false;\r\n        \r\n        (bool success, ) = _recipient.call{value: denomination}(\"\");\r\n        require(success, \"Transfer failed\");\r\n    }\r\n}",
  "sourcePath": "C:/GIGA BRAIN/TORNADO NIGGER/tornado-core/contracts/SimpleTornado.sol",
  "compiler": {
    "name": "solc",
    "version": "0.7.6+commit.7338295f.Emscripten.clang"
  },
  "schemaVersion": "3.3.4",
  "updatedAt": "2025-08-19T02:09:14.528Z",
  "devdoc": {
    "kind": "dev",
    "methods": {},
    "version": 1
  },
  "userdoc": {
    "kind": "user",
    "methods": {},
    "notice": "SimpleTornado - A simplified version for testing without ZK proofs WARNING: This is for testing only! It has no privacy!",
    "version": 1
  }
}