{
  "contractName": "TornadoMigration",
  "abi": [
    {
      "inputs": [],
      "stateMutability": "nonpayable",
      "type": "constructor"
    },
    {
      "inputs": [
        {
          "internalType": "bytes32",
          "name": "",
          "type": "bytes32"
        }
      ],
      "name": "deposits",
      "outputs": [
        {
          "internalType": "address",
          "name": "",
          "type": "address"
        }
      ],
      "stateMutability": "view",
      "type": "function"
    },
    {
      "inputs": [],
      "name": "owner",
      "outputs": [
        {
          "internalType": "address",
          "name": "",
          "type": "address"
        }
      ],
      "stateMutability": "view",
      "type": "function"
    },
    {
      "inputs": [
        {
          "internalType": "bytes32",
          "name": "",
          "type": "bytes32"
        }
      ],
      "name": "withdrawn",
      "outputs": [
        {
          "internalType": "bool",
          "name": "",
          "type": "bool"
        }
      ],
      "stateMutability": "view",
      "type": "function"
    },
    {
      "stateMutability": "payable",
      "type": "receive"
    },
    {
      "inputs": [
        {
          "internalType": "bytes32",
          "name": "commitment",
          "type": "bytes32"
        }
      ],
      "name": "registerDeposit",
      "outputs": [],
      "stateMutability": "nonpayable",
      "type": "function"
    },
    {
      "inputs": [
        {
          "internalType": "bytes",
          "name": "note",
          "type": "bytes"
        },
        {
          "internalType": "bytes32",
          "name": "commitment",
          "type": "bytes32"
        },
        {
          "internalType": "bytes32",
          "name": "nullifierHash",
          "type": "bytes32"
        },
        {
          "internalType": "address payable",
          "name": "recipient",
          "type": "address"
        }
      ],
      "name": "withdrawSHA256",
      "outputs": [],
      "stateMutability": "nonpayable",
      "type": "function"
    },
    {
      "inputs": [
        {
          "internalType": "bytes32",
          "name": "commitment",
          "type": "bytes32"
        },
        {
          "internalType": "address payable",
          "name": "recipient",
          "type": "address"
        }
      ],
      "name": "emergencyRecover",
      "outputs": [],
      "stateMutability": "nonpayable",
      "type": "function"
    }
  ],
  "bytecode": "0x608060405234801561001057600080fd5b50600280546001600160a01b0319163317905561059c806100326000396000f3fe6080604052600436106100595760003560e01c80633823d66c14610065578063386c5e7c146100a35780633d4dff7b146100de5780638da5cb5b14610124578063bf82295214610139578063fd818c471461020057610060565b3661006057005b600080fd5b34801561007157600080fd5b5061008f6004803603602081101561008857600080fd5b503561022a565b604080519115158252519081900360200190f35b3480156100af57600080fd5b506100dc600480360360408110156100c657600080fd5b50803590602001356001600160a01b031661023f565b005b3480156100ea57600080fd5b506101086004803603602081101561010157600080fd5b503561033b565b604080516001600160a01b039092168252519081900360200190f35b34801561013057600080fd5b50610108610356565b34801561014557600080fd5b506100dc6004803603608081101561015c57600080fd5b81019060208101813564010000000081111561017757600080fd5b82018360208201111561018957600080fd5b803590602001918460018302840111640100000000831117156101ab57600080fd5b91908080601f01602080910402602001604051908101604052809392919081815260200183838082843760009201919091525092955050823593505050602081013590604001356001600160a01b0316610365565b34801561020c57600080fd5b506100dc6004803603602081101561022357600080fd5b5035610546565b60016020526000908152604090205460ff1681565b6002546001600160a01b0316331461028a576040805162461bcd60e51b81526020600482015260096024820152682737ba1037bbb732b960b91b604482015290519081900360640190fd5b60008281526001602052604090205460ff16156102e2576040805162461bcd60e51b815260206004820152601160248201527020b63932b0b23c903bb4ba34323930bbb760791b604482015290519081900360640190fd5b6000828152600160208190526040808320805460ff1916909217909155516001600160a01b038316919069d3c21bcecceda10000009082818181858883f19350505050158015610336573d6000803e3d6000fd5b505050565b6000602081905290815260409020546001600160a01b031681565b6002546001600160a01b031681565b6000838152602081905260409020546001600160a01b031633146103c3576040805162461bcd60e51b815260206004820152601060248201526f139bdd081e5bdd5c8819195c1bdcda5d60821b604482015290519081900360640190fd5b60008281526001602052604090205460ff161561041b576040805162461bcd60e51b815260206004820152601160248201527020b63932b0b23c903bb4ba34323930bbb760791b604482015290519081900360640190fd5b60006002856040518082805190602001908083835b6020831061044f5780518252601f199092019160209182019101610430565b51815160209384036101000a60001901801990921691161790526040519190930194509192505080830381855afa15801561048e573d6000803e3d6000fd5b5050506040513d60208110156104a357600080fd5b505190508381146104ea576040805162461bcd60e51b815260206004820152600c60248201526b496e76616c6964206e6f746560a01b604482015290519081900360640190fd5b6000838152600160208190526040808320805460ff1916909217909155516001600160a01b038416919069d3c21bcecceda10000009082818181858883f1935050505015801561053e573d6000803e3d6000fd5b505050505050565b600090815260208190526040902080546001600160a01b0319163317905556fea2646970667358221220abfb651fcb8179a5f3015d0ab71f8585129c77c4dd31a3e614bc90d78d5f964c64736f6c63430007060033",
  "immutableReferences": {},
  "source": "\n// SPDX-License-Identifier: MIT\npragma solidity ^0.7.0;\n\n/**\n * Migration contract to recover SHA256-based deposits\n * This allows withdrawal from the old contract\n */\ncontract TornadoMigration {\n    address constant OLD_TORNADO = 0x50af9dD094cd43A14FFFC38FbDb17C99eAc79A71;\n    \n    // SHA256 commitments from old contract\n    mapping(bytes32 => address) public deposits;\n    mapping(bytes32 => bool) public withdrawn;\n    \n    // Owner for emergency recovery\n    address public owner;\n    \n    modifier onlyOwner() {\n        require(msg.sender == owner, \"Not owner\");\n        _;\n    }\n    \n    constructor() {\n        owner = msg.sender;\n    }\n    \n    // Register your SHA256 commitment for recovery\n    function registerDeposit(bytes32 commitment) external {\n        deposits[commitment] = msg.sender;\n    }\n    \n    // Withdraw with SHA256 verification (simplified for recovery)\n    function withdrawSHA256(\n        bytes memory note,\n        bytes32 commitment,\n        bytes32 nullifierHash,\n        address payable recipient\n    ) external {\n        require(deposits[commitment] == msg.sender, \"Not your deposit\");\n        require(!withdrawn[nullifierHash], \"Already withdrawn\");\n        \n        // Verify the note generates the commitment (SHA256)\n        bytes32 computedCommitment = sha256(note);\n        require(computedCommitment == commitment, \"Invalid note\");\n        \n        withdrawn[nullifierHash] = true;\n        \n        // Transfer 1M PLS\n        recipient.transfer(1000000 ether);\n    }\n    \n    // Emergency recovery by owner\n    function emergencyRecover(\n        bytes32 commitment,\n        address payable recipient\n    ) external onlyOwner {\n        require(!withdrawn[commitment], \"Already withdrawn\");\n        withdrawn[commitment] = true;\n        recipient.transfer(1000000 ether);\n    }\n    \n    // Receive PLS\n    receive() external payable {}\n}\n",
  "sourcePath": "C:/GIGA BRAIN/TORNADO NIGGER/tornado-core/contracts/TornadoMigration.sol",
  "compiler": {
    "name": "solc",
    "version": "0.7.6+commit.7338295f.Emscripten.clang"
  },
  "schemaVersion": "3.3.4",
  "updatedAt": "2025-08-19T02:09:14.529Z",
  "devdoc": {
    "kind": "dev",
    "methods": {},
    "version": 1
  },
  "userdoc": {
    "kind": "user",
    "methods": {},
    "notice": "Migration contract to recover SHA256-based deposits This allows withdrawal from the old contract",
    "version": 1
  }
}