{
  "contractName": "MerkleTreeWithHistoryMock",
  "abi": [
    {
      "inputs": [
        {
          "internalType": "uint32",
          "name": "_treeLevels",
          "type": "uint32"
        },
        {
          "internalType": "contract IHasher",
          "name": "_hasher",
          "type": "address"
        }
      ],
      "stateMutability": "nonpayable",
      "type": "constructor"
    },
    {
      "inputs": [],
      "name": "FIELD_SIZE",
      "outputs": [
        {
          "internalType": "uint256",
          "name": "",
          "type": "uint256"
        }
      ],
      "stateMutability": "view",
      "type": "function"
    },
    {
      "inputs": [],
      "name": "ROOT_HISTORY_SIZE",
      "outputs": [
        {
          "internalType": "uint32",
          "name": "",
          "type": "uint32"
        }
      ],
      "stateMutability": "view",
      "type": "function"
    },
    {
      "inputs": [],
      "name": "ZERO_VALUE",
      "outputs": [
        {
          "internalType": "uint256",
          "name": "",
          "type": "uint256"
        }
      ],
      "stateMutability": "view",
      "type": "function"
    },
    {
      "inputs": [],
      "name": "currentRootIndex",
      "outputs": [
        {
          "internalType": "uint32",
          "name": "",
          "type": "uint32"
        }
      ],
      "stateMutability": "view",
      "type": "function"
    },
    {
      "inputs": [
        {
          "internalType": "uint256",
          "name": "",
          "type": "uint256"
        }
      ],
      "name": "filledSubtrees",
      "outputs": [
        {
          "internalType": "bytes32",
          "name": "",
          "type": "bytes32"
        }
      ],
      "stateMutability": "view",
      "type": "function"
    },
    {
      "inputs": [],
      "name": "getLastRoot",
      "outputs": [
        {
          "internalType": "bytes32",
          "name": "",
          "type": "bytes32"
        }
      ],
      "stateMutability": "view",
      "type": "function"
    },
    {
      "inputs": [
        {
          "internalType": "contract IHasher",
          "name": "_hasher",
          "type": "address"
        },
        {
          "internalType": "bytes32",
          "name": "_left",
          "type": "bytes32"
        },
        {
          "internalType": "bytes32",
          "name": "_right",
          "type": "bytes32"
        }
      ],
      "name": "hashLeftRight",
      "outputs": [
        {
          "internalType": "bytes32",
          "name": "",
          "type": "bytes32"
        }
      ],
      "stateMutability": "pure",
      "type": "function"
    },
    {
      "inputs": [],
      "name": "hasher",
      "outputs": [
        {
          "internalType": "contract IHasher",
          "name": "",
          "type": "address"
        }
      ],
      "stateMutability": "view",
      "type": "function"
    },
    {
      "inputs": [
        {
          "internalType": "bytes32",
          "name": "_root",
          "type": "bytes32"
        }
      ],
      "name": "isKnownRoot",
      "outputs": [
        {
          "internalType": "bool",
          "name": "",
          "type": "bool"
        }
      ],
      "stateMutability": "view",
      "type": "function"
    },
    {
      "inputs": [],
      "name": "levels",
      "outputs": [
        {
          "internalType": "uint32",
          "name": "",
          "type": "uint32"
        }
      ],
      "stateMutability": "view",
      "type": "function"
    },
    {
      "inputs": [],
      "name": "nextIndex",
      "outputs": [
        {
          "internalType": "uint32",
          "name": "",
          "type": "uint32"
        }
      ],
      "stateMutability": "view",
      "type": "function"
    },
    {
      "inputs": [
        {
          "internalType": "uint256",
          "name": "",
          "type": "uint256"
        }
      ],
      "name": "roots",
      "outputs": [
        {
          "internalType": "bytes32",
          "name": "",
          "type": "bytes32"
        }
      ],
      "stateMutability": "view",
      "type": "function"
    },
    {
      "inputs": [
        {
          "internalType": "uint256",
          "name": "i",
          "type": "uint256"
        }
      ],
      "name": "zeros",
      "outputs": [
        {
          "internalType": "bytes32",
          "name": "",
          "type": "bytes32"
        }
      ],
      "stateMutability": "pure",
      "type": "function"
    },
    {
      "inputs": [
        {
          "internalType": "bytes32",
          "name": "_leaf",
          "type": "bytes32"
        }
      ],
      "name": "insert",
      "outputs": [],
      "stateMutability": "nonpayable",
      "type": "function"
    }
  ],
  "bytecode": "0x60a0604052600380546001600160401b03191690553480156200002157600080fd5b506040516200164338038062001643833981810160405260408110156200004757600080fd5b508051602090910151818163ffffffff8216620000965760405162461bcd60e51b8152600401808060200182810382526023815260200180620016206023913960400191505060405180910390fd5b60208263ffffffff1610620000f2576040805162461bcd60e51b815260206004820152601e60248201527f5f6c6576656c732073686f756c64206265206c657373207468616e2033320000604482015290519081900360640190fd5b6000805463ffffffff191663ffffffff8416178155606082901b6001600160601b0319166080525b8263ffffffff168163ffffffff16101562000163576200014063ffffffff8216620001af565b63ffffffff8216600090815260016020819052604090912091909155016200011a565b506200017963ffffffff600019840116620001af565b6000805260026020527fac33ff75c19e70fe83507db0d683fd3465c996598dc972688b7ace676c89077b55506200083d92505050565b600081620001df57507f2fe54c60d3acabf3343a35b6eba15db4821b340f76e741e2249685ed4899af6c62000838565b81600114156200021157507f256a6135777eee2fd26f54b8b7037a25439d5235caee224154186d2b8a52e31d62000838565b81600214156200024357507f1151949895e82ab19924de92c40a3d6f7bcb60d92b00504b8199613683f0c20062000838565b81600314156200027557507f20121ee811489ff8d61f09fb89e313f14959a0f28bb428a20dba6b0b068b3bdb62000838565b8160041415620002a757507f0a89ca6ffa14cc462cfedb842c30ed221a50a3d6bf022a6a57dc82ab24c157c962000838565b8160051415620002d957507f24ca05c2b5cd42e890d6be94c68d0689f4f21c9cec9c0f13fe41d566dfb5495962000838565b81600614156200030b57507f1ccb97c932565a92c60156bdba2d08f3bf1377464e025cee765679e604a7315c62000838565b81600714156200033d57507f19156fbd7d1a8bf5cba8909367de1b624534ebab4f0f79e003bccdd1b182bdb462000838565b81600814156200036f57507f261af8c1f0912e465744641409f622d466c3920ac6e5ff37e36604cb11dfff8062000838565b8160091415620003a057507e58459724ff6ca5a1652fcbc3e82b93895cf08e975b19beab3f54c217d1c00762000838565b81600a1415620003d257507f1f04ef20dee48d39984d8eabe768a70eafa6310ad20849d4573c3c40c2ad1e3062000838565b81600b14156200040457507f1bea3dec5dab51567ce7e200a30f7ba6d4276aeaa53e2686f962a46c66d511e562000838565b81600c14156200043657507f0ee0f941e2da4b9e31c3ca97a40d8fa9ce68d97c084177071b3cb46cd3372f0f62000838565b81600d14156200046857507f1ca9503e8935884501bbaf20be14eb4c46b89772c97b96e3b2ebf3a36a948bbd62000838565b81600e14156200049a57507f133a80e30697cd55d8f7d4b0965b7be24057ba5dc3da898ee2187232446cb10862000838565b81600f1415620004cc57507f13e6d8fc88839ed76e182c2a779af5b2c0da9dd18c90427a644f7e148a6253b662000838565b8160101415620004fe57507f1eb16b057a477f4bc8f572ea6bee39561098f78f15bfb3699dcbb7bd8db6185462000838565b81601114156200053057507f0da2cb16a1ceaabf1c16b838f7a9e3f2a3a3088d9e0a6debaa748114620696ea62000838565b81601214156200056257507f24a3b3d822420b14b5d8cb6c28a574f01e98ea9e940551d2ebd75cee12649f9d62000838565b81601314156200059457507f198622acbd783d1b0d9064105b1fc8e4d8889de95c4c519b3f635809fe6afc0562000838565b8160141415620005c657507f29d7ed391256ccc3ea596c86e933b89ff339d25ea8ddced975ae2fe30b5296d462000838565b8160151415620005f857507f19be59f2f0413ce78c0c3703a3a5451b1d7f39629fa33abd11548a76065b296762000838565b81601614156200062a57507f1ff3f61797e538b70e619310d33f2a063e7eb59104e112e95738da1254dc345362000838565b81601714156200065c57507f10c16ae9959cf8358980d9dd9616e48228737310a10e2b6b731c1a548f036c4862000838565b81601814156200068e57507f0ba433a63174a90ac20992e75e3095496812b652685b5e1a2eae0b1bf4e8fcd162000838565b8160191415620006c057507f019ddb9df2bc98d987d0dfeca9d2b643deafab8f7036562e627c3667266a044c62000838565b81601a1415620006f257507f2d3c88b23175c5a5565db928414c66d1912b11acf974b2e644caaac04739ce9962000838565b81601b14156200072457507f2eab55f6ae4e66e32c5189eed5c470840863445760f5ed7e7b69b2a62600f35462000838565b81601c14156200075557507e2df37a2642621802383cf952bf4dd1f32e05433beeb1fd41031fb7eace979d62000838565b81601d14156200078757507f104aeb41435db66c3e62feccc1d6f5d98d0a0ed75d1374db457cf462e3a1f42762000838565b81601e1415620007b957507f1f3c6fd858e9a7d4b0d1f38e256a09d81d5a5e3c963987e2d4b814cfab7c6ebb62000838565b81601f1415620007eb57507f2c7a07d20dff79d01fecedc1134284a8d08436606c93693b67e333f671bf69cc62000838565b6040805162461bcd60e51b815260206004820152601360248201527f496e646578206f7574206f6620626f756e647300000000000000000000000000604482015290519081900360640190fd5b919050565b60805160601c610dc06200086060003980610b5b5280610c765250610dc06000f3fe608060405234801561001057600080fd5b50600436106100ea5760003560e01c8063c2b40ae41161008c578063ec73295911610066578063ec732959146101fe578063ed33639f14610206578063f178e47c1461022a578063fc7e9c6f14610247576100ea565b8063c2b40ae4146101bc578063cd87a3b4146101d9578063e8295588146101e1576100ea565b80636d9833e3116100c85780636d9833e3146101495780638ea3099e1461017a57806390eeb02b146101ac578063ba70f757146101b4576100ea565b80632d287e43146100ef578063414a37ba1461010e5780634ecf518b14610128575b600080fd5b61010c6004803603602081101561010557600080fd5b503561024f565b005b61011661025c565b60408051918252519081900360200190f35b61013061026e565b6040805163ffffffff9092168252519081900360200190f35b6101666004803603602081101561015f57600080fd5b503561027a565b604080519115158252519081900360200190f35b6101166004803603606081101561019057600080fd5b506001600160a01b0381351690602081013590604001356102ec565b6101306104b8565b6101166104c4565b610116600480360360208110156101d257600080fd5b50356104df565b6101306104f1565b610116600480360360208110156101f757600080fd5b50356104f6565b610116610b35565b61020e610b59565b604080516001600160a01b039092168252519081900360200190f35b6101166004803603602081101561024057600080fd5b5035610b7d565b610130610b8f565b61025881610ba3565b5050565b600080516020610d3b83398151915281565b60005463ffffffff1681565b600081610289575060006102e7565b60035463ffffffff16805b63ffffffff81166000908152600260205260409020548414156102bc576001925050506102e7565b63ffffffff81166102cb5750601e5b6000190163ffffffff8082169083161415610294576000925050505b919050565b6000600080516020610d3b8339815191528310610350576040805162461bcd60e51b815260206004820181905260248201527f5f6c6566742073686f756c6420626520696e7369646520746865206669656c64604482015290519081900360640190fd5b600080516020610d3b833981519152821061039c5760405162461bcd60e51b8152600401808060200182810382526021815260200180610d1a6021913960400191505060405180910390fd5b6040805163f47d33b560e01b8152600481018590526000602482018190528251869391926001600160a01b0389169263f47d33b592604480840193829003018186803b1580156103eb57600080fd5b505afa1580156103ff573d6000803e3d6000fd5b505050506040513d604081101561041557600080fd5b5080516020909101519092509050600080516020610d3b8339815191528483089150856001600160a01b031663f47d33b583836040518363ffffffff1660e01b81526004018083815260200182815260200192505050604080518083038186803b15801561048257600080fd5b505afa158015610496573d6000803e3d6000fd5b505050506040513d60408110156104ac57600080fd5b50519695505050505050565b60035463ffffffff1681565b60035463ffffffff1660009081526002602052604090205490565b60026020526000908152604090205481565b601e81565b60008161052457507f2fe54c60d3acabf3343a35b6eba15db4821b340f76e741e2249685ed4899af6c6102e7565b816001141561055457507f256a6135777eee2fd26f54b8b7037a25439d5235caee224154186d2b8a52e31d6102e7565b816002141561058457507f1151949895e82ab19924de92c40a3d6f7bcb60d92b00504b8199613683f0c2006102e7565b81600314156105b457507f20121ee811489ff8d61f09fb89e313f14959a0f28bb428a20dba6b0b068b3bdb6102e7565b81600414156105e457507f0a89ca6ffa14cc462cfedb842c30ed221a50a3d6bf022a6a57dc82ab24c157c96102e7565b816005141561061457507f24ca05c2b5cd42e890d6be94c68d0689f4f21c9cec9c0f13fe41d566dfb549596102e7565b816006141561064457507f1ccb97c932565a92c60156bdba2d08f3bf1377464e025cee765679e604a7315c6102e7565b816007141561067457507f19156fbd7d1a8bf5cba8909367de1b624534ebab4f0f79e003bccdd1b182bdb46102e7565b81600814156106a457507f261af8c1f0912e465744641409f622d466c3920ac6e5ff37e36604cb11dfff806102e7565b81600914156106d357507e58459724ff6ca5a1652fcbc3e82b93895cf08e975b19beab3f54c217d1c0076102e7565b81600a141561070357507f1f04ef20dee48d39984d8eabe768a70eafa6310ad20849d4573c3c40c2ad1e306102e7565b81600b141561073357507f1bea3dec5dab51567ce7e200a30f7ba6d4276aeaa53e2686f962a46c66d511e56102e7565b81600c141561076357507f0ee0f941e2da4b9e31c3ca97a40d8fa9ce68d97c084177071b3cb46cd3372f0f6102e7565b81600d141561079357507f1ca9503e8935884501bbaf20be14eb4c46b89772c97b96e3b2ebf3a36a948bbd6102e7565b81600e14156107c357507f133a80e30697cd55d8f7d4b0965b7be24057ba5dc3da898ee2187232446cb1086102e7565b81600f14156107f357507f13e6d8fc88839ed76e182c2a779af5b2c0da9dd18c90427a644f7e148a6253b66102e7565b816010141561082357507f1eb16b057a477f4bc8f572ea6bee39561098f78f15bfb3699dcbb7bd8db618546102e7565b816011141561085357507f0da2cb16a1ceaabf1c16b838f7a9e3f2a3a3088d9e0a6debaa748114620696ea6102e7565b816012141561088357507f24a3b3d822420b14b5d8cb6c28a574f01e98ea9e940551d2ebd75cee12649f9d6102e7565b81601314156108b357507f198622acbd783d1b0d9064105b1fc8e4d8889de95c4c519b3f635809fe6afc056102e7565b81601414156108e357507f29d7ed391256ccc3ea596c86e933b89ff339d25ea8ddced975ae2fe30b5296d46102e7565b816015141561091357507f19be59f2f0413ce78c0c3703a3a5451b1d7f39629fa33abd11548a76065b29676102e7565b816016141561094357507f1ff3f61797e538b70e619310d33f2a063e7eb59104e112e95738da1254dc34536102e7565b816017141561097357507f10c16ae9959cf8358980d9dd9616e48228737310a10e2b6b731c1a548f036c486102e7565b81601814156109a357507f0ba433a63174a90ac20992e75e3095496812b652685b5e1a2eae0b1bf4e8fcd16102e7565b81601914156109d357507f019ddb9df2bc98d987d0dfeca9d2b643deafab8f7036562e627c3667266a044c6102e7565b81601a1415610a0357507f2d3c88b23175c5a5565db928414c66d1912b11acf974b2e644caaac04739ce996102e7565b81601b1415610a3357507f2eab55f6ae4e66e32c5189eed5c470840863445760f5ed7e7b69b2a62600f3546102e7565b81601c1415610a6257507e2df37a2642621802383cf952bf4dd1f32e05433beeb1fd41031fb7eace979d6102e7565b81601d1415610a9257507f104aeb41435db66c3e62feccc1d6f5d98d0a0ed75d1374db457cf462e3a1f4276102e7565b81601e1415610ac257507f1f3c6fd858e9a7d4b0d1f38e256a09d81d5a5e3c963987e2d4b814cfab7c6ebb6102e7565b81601f1415610af257507f2c7a07d20dff79d01fecedc1134284a8d08436606c93693b67e333f671bf69cc6102e7565b6040805162461bcd60e51b8152602060048201526013602482015272496e646578206f7574206f6620626f756e647360681b604482015290519081900360640190fd5b7f2fe54c60d3acabf3343a35b6eba15db4821b340f76e741e2249685ed4899af6c81565b7f000000000000000000000000000000000000000000000000000000000000000081565b60016020526000908152604090205481565b600354640100000000900463ffffffff1681565b60035460008054909163ffffffff640100000000909104811691811660020a16811415610c015760405162461bcd60e51b8152600401808060200182810382526030815260200180610d5b6030913960400191505060405180910390fd5b8083600080805b60005463ffffffff9081169082161015610cb25760018516610c5557839250610c368163ffffffff166104f6565b63ffffffff821660009081526001602052604090208590559150610c71565b63ffffffff811660009081526001602052604090205492508391505b610c9c7f000000000000000000000000000000000000000000000000000000000000000084846102ec565b9350600263ffffffff8616049450600101610c08565b505060038054601e63ffffffff8083166001908101821692909206811663ffffffff1990931683178455600092835260026020526040909220949094558154938601166401000000000267ffffffff0000000019909316929092179091555090939250505056fe5f72696768742073686f756c6420626520696e7369646520746865206669656c6430644e72e131a029b85045b68181585d2833e84879b9709143e1f593f00000014d65726b6c6520747265652069732066756c6c2e204e6f206d6f7265206c65617665732063616e206265206164646564a2646970667358221220d934f8dadf170c59249ca04c8375384a1f62f6a4c454cc6989790e764cd2977c64736f6c634300070600335f6c6576656c732073686f756c642062652067726561746572207468616e207a65726f",
  "immutableReferences": {
    "250": [
      {
        "length": 32,
        "start": 2907
      },
      {
        "length": 32,
        "start": 3190
      }
    ]
  },
  "source": "// SPDX-License-Identifier: MIT\r\npragma solidity ^0.7.0;\r\n\r\nimport \"../MerkleTreeWithHistory.sol\";\r\n\r\ncontract MerkleTreeWithHistoryMock is MerkleTreeWithHistory {\r\n  constructor(uint32 _treeLevels, IHasher _hasher) MerkleTreeWithHistory(_treeLevels, _hasher) {}\r\n\r\n  function insert(bytes32 _leaf) public {\r\n    _insert(_leaf);\r\n  }\r\n}\r\n",
  "sourcePath": "C:/GIGA BRAIN/TORNADO NIGGER/tornado-core/contracts/Mocks/MerkleTreeWithHistoryMock.sol",
  "compiler": {
    "name": "solc",
    "version": "0.7.6+commit.7338295f.Emscripten.clang"
  },
  "schemaVersion": "3.3.4",
  "updatedAt": "2025-08-18T20:38:55.818Z",
  "devdoc": {
    "kind": "dev",
    "methods": {
      "getLastRoot()": {
        "details": "Returns the last root"
      },
      "hashLeftRight(address,bytes32,bytes32)": {
        "details": "Hash 2 tree leaves, returns MiMC(_left, _right)"
      },
      "isKnownRoot(bytes32)": {
        "details": "Whether the root is present in the root history"
      },
      "zeros(uint256)": {
        "details": "provides Zero (Empty) elements for a MiMC MerkleTree. Up to 32 levels"
      }
    },
    "version": 1
  },
  "userdoc": {
    "kind": "user",
    "methods": {},
    "version": 1
  }
}